:020000040800F2
:100000005009002029020008D55B000821420008A1
:10001000095B00081F040008C97600080000000002
:1000200000000000000000000000000079690008E6
:10003000610400080000000075690008F16900080B
:10004000430200084302000843020008430200087C
:1000500043020008776900084302000843020008D1
:10006000430200084302000843020008430200085C
:10007000430200084302000843020008430200084C
:10008000430200084302000843020008430200083C
:10009000430200084302000843020008430200082C
:1000A000430200084302000843020008430200081C
:1000B000BD6A0008430200084302000835420008F8
:1000C00025420008430200084302000843020008DA
:1000D00043020008430200084302000843020008EC
:1000E000430200084302000843020008CD6A0008EA
:1000F000ED6A000843020008DD6A000843020008B8
:1001000043020008430200084302000843020008BB
:10011000057100084302000843020008430200087A
:10012000430200084302000843020008430200089B
:10013000430200084302000843020008430200088B
:10014000430200084302000843020008430200087B
:10015000430200084302000843020008430200086B
:10016000430200084302000843020008430200085B
:100170004302000843020008430200080000000098
:10018000430200087104000800F002F800F03CF897
:100190000AA090E8000C82448344AAF10107DA45E2
:1001A00001D100F031F8AFF2090EBAE80F0013F0F8
:1001B000010F18BFFB1A43F00103184728930000F2
:1001C00048930000103A24BF78C878C1FAD8520783
:1001D00024BF30C830C144BF04680C6070470000C1
:1001E0000023002400250026103A28BF78C1FBD840
:1001F000520728BF30C148BF0B6070471FB509F0D8
:1002000016F91FBD10B510BD00F0CFF81146FFF76D
:10021000F5FF07F06BFB00F0EDF803B4FFF7F2FF1A
:1002200003BC00F0F5F80000094880470948004782
:10023000FEE7FEE7FEE7FEE7FEE7FEE7FEE7FEE796
:10024000FEE7FEE704480549054A064B70470000F3
:10025000A96A000889010008500300205009002005
:10026000500500205005002053EA020C00F0698080
:100270002DE9F04B4FF00006002B1FBFB3FA83F5BA
:1002800003FA05F424FA05F65E4012BF1643B2FAEB
:1002900082F502FA05F4C5F120051EBF22FA05FC1D
:1002A00044EA0C04203556EA044C4FEA144418BFC3
:1002B000641C4FF000084FF00009904271EB030CF2
:1002C00039D3002919BFB1FA81F701FA07F6B0FA5C
:1002D00080F700FA07F6C7F120071EBF20FA07FCD7
:1002E00046EA0C062037B6FBF4FCA7EB0507103FE7
:1002F00007F01F0BCBF120060CFA0BFB2CFA06F6CD
:1003000044BFB3460026202FA4BF5E464FF0000B2B
:100310005BEA060C08BF4FF0010B19EB0B09ABFBB6
:10032000027C48EB0608C01B06FB02CC0BFB03CC8F
:1003300071EB0C01C1E70B46024641464846BDE859
:10034000F08B13B54FF000004FF00001AFF30080C9
:10035000BDE81C4070474FF0000200B513469446BC
:100360009646203922BFA0E80C50A0E80C50B1F10D
:100370002001BFF4F7AF090728BFA0E80C5048BF21
:100380000CC05DF804EB890028BF40F8042B08BFBF
:10039000704748BF20F8022B11F0804F18BF00F8BB
:1003A000012B7047704770477047754600F02CF876
:1003B000AE4605006946534620F00700854618B052
:1003C00020B5FFF73FFFBDE820404FF000064FF09B
:1003D00000074FF000084FF0000B21F00701AC467A
:1003E000ACE8C009ACE8C009ACE8C009ACE8C00999
:1003F0008D46704710B50446AFF300802046BDE837
:100400001040FFF70ABF000000487047F0020020CC
:1004100001491820ABBEFEE726000200704700BF6E
:10042000FEE7000070B504460D46002612E00022EB
:100430004FF40051094800F015FB284600F088F8F9
:1004400001225103054800F00DFB284600F080F81A
:10045000701CC6B2A642EADB70BD00000008024074
:100460007047020A4A708870704772B600BFFEE794
:10047000704770B50446A56D00F030FB064694F851
:100480003500022808D08020606500BF002084F875
:10049000340000BF012070BD2068006820F0160005
:1004A000216808602068406920F080002168486168
:1004B000206C08B9A06C28B12068006820F0080002
:1004C000216808602068006820F001002168086049
:1004D00010E000F003FB801B05280BD9202060658D
:1004E000032084F8350000BF002084F8340000BFEA
:1004F0000320D0E72068006800F001000028E8D160
:1005000094F85C103F208840A860012084F83500F2
:1005100000BF002084F8340000BF00BFBBE70146E5
:1005200091F83500022803D08020486501207047EB
:10053000052081F835000868006820F001000A688D
:1005400010600020F3E7014691F835007047000085
:1005500070B5044600F0C2FA06462546681C10B184
:1005600004480078054400BF00F0B8FA801BA84298
:10057000FAD370BDB00000202DE9F84306460C46C2
:100580004FF00009C8460025E648864217D0E648E5
:10059000864214D0E548864211D0E54886420ED006
:1005A000E44886420BD0E448864208D0E3488642BD
:1005B00005D0E348864202D0E248864200D103E0FB
:1005C000AC21E1A007F081F9208880B220B1206839
:1005D0006FF30F0000B903E0AD21DBA007F075F960
:1005E000606830B36068012823D06068112820D08B
:1005F000606802281DD0606812281AD06068B0F5C3
:10060000881F16D06068B0F5041F12D06068B0F57E
:10061000441F0ED06068B0F5901F0AD06068B0F536
:10062000081F06D06068B0F5481F02D06068032834
:1006300000D103E0AE21C4A007F047F900276BE129
:10064000012000FA07F9206800EA0908C8457DD1B1
:10065000207900F00300012804D0207900F0030085
:10066000022823D1E06840B1E068012805D0E068A5
:10067000022802D0E068032800D103E0C021B2A024
:1006800007F023F9B5687900032088408543790095
:10069000E06888400543B56075680120B84085432F
:1006A0002079C0F30010B84005437560207900F050
:1006B0000300032816D0A06828B1A068012802D042
:1006C000A068022800D103E0D1219FA007F0FDF827
:1006D000F56879000320884085437900A068884048
:1006E0000543F560207900F0030002287ED12069DF
:1006F00068B32069092864D0206940B3206930B309
:10070000206920B3206910B32069012859D02069DD
:10071000012856D02069022853D02069022850D0E1
:10072000206902284DD0206903284AD02069042876
:1007300047D02069042844D02069042841D020698A
:1007400005283ED0206905283BD001E0E3E038E0F1
:100750002069092835D02069062832D02069092867
:100760002FD0206907282CD02069072829D020699C
:10077000072826D02069082823D02069082820D0FF
:10078000206908281DD0206909281AD02069092865
:1007900017D020690A2814D020690A2811D02069AE
:1007A0000B280ED020690C280BD020690C2808D00B
:1007B00020690D2805D020690C2802D020690F2857
:1007C00000D103E0DE2160A007F07FF8F90806F110
:1007D000200050F821507807C10E0F208840854333
:1007E0007907C90E20698840054300E004E0F90854
:1007F00006F1200040F82150356879000320884038
:100800008543207900F00300790088400543356076
:10081000606800F4403000287DD000BF00200090C8
:100820005848006840F4804056490860084600680F
:1008300000F48040009000BF00BF5348B90850F852
:100840002150B807010F0F20884085433548864264
:1008500001D1002023E03448864201D101201EE06E
:100860003248864201D1022019E03148864201D146
:10087000032014E02F48864201D104200FE02E48C7
:10088000864201D105200AE02C48864201D106208B
:1008900005E02B48864201D1072000E00820B90777
:1008A000090F884005433848B90840F821503748B7
:1008B000056825EA0805606800F4801008B145EA7B
:1008C000080532480560001D056825EA08056068CE
:1008D00000F4001008B145EA08052C48001D056029
:1008E0002A48001F056825EA0805606800F4003002
:1008F00008B145EA08052548001F0560001F056886
:1009000025EA0805606800F4803008B145EA08056A
:100910001E48083805607F1C102FFFF491AEBDE81B
:10092000F88300000000024000040240000802407A
:10093000000C024000100240001402400018024067
:10094000001C0240002002402E2E2F447269766562
:1009500072732F53544D3332463478785F48414C8C
:100960005F4472697665722F5372632F73746D33AF
:1009700032663478785F68616C5F6770696F2E6388
:10098000000000004438024008380140083C0140A3
:1009900070B506460C46A0B218B1200C000400B990
:1009A00004E04FF4BE7105A006F08FFF30692040CF
:1009B00008B1012500E00025284670BD2E2E2F44E9
:1009C0007269766572732F53544D3332463478789A
:1009D0005F48414C5F4472697665722F5372632F92
:1009E00073746D3332663478785F68616C5F6770FA
:1009F000696F2E630000000070B505460C46A0B27A
:100A000018B1200C000400B904E04FF4DB7106A01B
:100A100006F05BFF6E6924EA060006EA040140EA7C
:100A20000140A86170BD00002E2E2F4472697665CA
:100A300072732F53544D3332463478785F48414CAB
:100A40005F4472697665722F5372632F73746D33CE
:100A500032663478785F68616C5F6770696F2E63A7
:100A60000000000070B506460C461546A0B218B14D
:100A7000200C000400B904E040F29D1108A006F02B
:100A800024FF0DB1012D00D104E04FF4CF7104A07B
:100A900006F01BFF0DB1B46101E02004B06170BD30
:100AA0002E2E2F447269766572732F53544D333254
:100AB000463478785F48414C5F4472697665722F9E
:100AC0005372632F73746D3332663478785F686164
:100AD0006C5F6770696F2E6300000000014800685A
:100AE00070470000A8000020704770472DE9F84FBC
:100AF0000446206847692068D0F80480002594F8EF
:100B00003E90C7F3002040B1C8F3002028B145F063
:100B100001056FF4807021684861C7F3402040B13F
:100B2000C8F3002028B145F002056FF40070216879
:100B30004861C7F3802070B3C8F3002058B3CA4699
:100B4000B4F82AB094F83D60206B0090BAF1200F01
:100B50000FD1BBF1000F0CD1212E06D0292E04D0CD
:100B6000282E06D10098212803D1204604F0C0FA8F
:100B700011E06FF480602168486145F00405B9F127
:100B8000100F02D0B9F1400F05D12068006840F481
:100B9000007021680860C7F3C02040B1C8F300208E
:100BA00028B145F008056FF40060216848612DB157
:100BB000206C28432064204603F0CEFBBDE8F88F6C
:100BC0002DE9F04705464FF0000928684668D5F83A
:100BD0002CA095F83E7095F83D80102F01D0402F45
:100BE00075D12868D0F818902868446904F001008D
:100BF00060B9BAF52A0F02D0BAF12A4F01D101200B
:100C000000E00020012801D1BDE8F08704F00100D8
:100C100048B1C6F3402030B1284603F013FB284604
:100C200003F0FFFFB7E0C4F3C00030B1C6F34020CB
:100C300018B1284603F0ACFEADE0C4F3400030B17B
:100C4000C6F3402018B1284603F0B7FEA3E0C9F36D
:100C5000800040B32868406800F40060B0F5006F81
:100C6000E0D0C4F3C01048B1C6F3802030B1C4F363
:100C7000800018B9284603F01FFE8CE0C4F3800002
:100C80000028CFD0C6F340200028CBD0B8F1210FE8
:100C900003D1284603F0C0FD7DE0402F7BD12846DC
:100CA00004F00EF877E02868406800F40060B0F5C2
:100CB000006F70D0C4F3801050B1C6F3802038B1FB
:100CC000C4F3800020B9284603F0CEFC63E00BE0BB
:100CD000C4F3800000285ED0C6F3402000285AD01C
:100CE000284603F02EFC56E0286C10B128684469B1
:100CF00004E02868D0F8189028684469C4F34000DC
:100D000060B1C6F3402048B1286C10B12868D0F813
:100D100018904946284604F0B3F93CE0C4F30010AB
:100D200030B1C6F3402018B1284604F031FA32E061
:100D3000B8F1210F02D0B8F1290F16D1C4F3C010B9
:100D400048B1C6F3802030B1C4F3800018B92846FA
:100D500004F073F91FE0C4F38000E0B1C6F3402053
:100D6000C8B1284604F05CF915E0C4F3801048B11E
:100D7000C6F3802030B1C4F3800018B9284604F0CF
:100D80002CF908E0C4F3800028B1C6F3402010B16C
:100D9000284604F015F900BF36E7704770B50446E1
:100DA0000CB9012070BDA3492068884207D0A24930
:100DB0002068884203D0A1492068884200D104E01D
:100DC0004FF4DF719EA006F080FD606820B1AA4953
:100DD0006068884200D804E040F2BF1198A006F095
:100DE00074FDA06818B1A068B0F5804F00D104E090
:100DF0004FF4E07192A006F068FDE0686FF309001F
:100E000000B904E040F2C1118DA006F05EFD20693A
:100E1000B0F5804F03D02069B0F5404F00D104E019
:100E20004FF4E17186A006F050FD606910B1606971
:100E3000012800D104E040F2C31181A006F045FD75
:100E4000A06920F0FE0000B904E04FF4E2717CA03C
:100E500006F03BFDE06910B1E069402800D104E0F4
:100E600040F2C51176A006F030FD206A10B1206A6C
:100E7000802800D104E04FF4E37171A006F025FD55
:100E800094F83D0028B9002084F83C00204600F08A
:100E90000FFD242084F83D002068006820F0010048
:100EA000216808602068006840F4004021680860FC
:100EB0002068006820F400402168086001F020F8F4
:100EC00005466E496068884206D86D48854201D261
:100ED000012007E0002005E06A48854201D2012098
:100EE00000E00020012800D15CE76748B5FBF0F680
:100EF0002068406820F03F003043216848605F4927
:100F00006068884201D8701C07E04FF49670704307
:100F10004FF47A71B0FBF1F0401C2168096A21F0AE
:100F20003F0108432168086254496068884214D828
:100F3000681E61684900B0FBF1F0401CC0F30B0073
:100F4000042801D204203DE0681E61684900B0FB1E
:100F5000F1F0401CC0F30B0034E0A06838B9681E03
:100F6000616801EB4101B0FBF1F0401C0AE0681E32
:100F7000616801EBC10202EB0111B0FBF1F0401C12
:100F800040F48040C0F30B0008B901201AE0A068CB
:100F900048B9681E616801EB4101B0FBF1F0401CEB
:100FA000C0F30B000CE0681E616801EBC10202EBAC
:100FB0000111B0FBF1F0401CC0F30B0040F4804085
:100FC00040F400402168C9694CF6FF729143084320
:100FD0002168C861D4E9070108432168096821F044
:100FE000C001084321680860D4E903100843216860
:100FF000896848F2FF329143084321688860D4E948
:10100000050108432168C96821F0FF0108432168F0
:10101000C8602068006840F0010021680860002076
:101020002064202084F83D000020206384F83E00E6
:1010300000BFB7E60054004000580040005C00408C
:101040002E2E2F447269766572732F53544D3332AE
:10105000463478785F48414C5F4472697665722FF8
:101060005372632F73746D3332663478785F6861BE
:101070006C5F6932632E6300801A0600A08601004F
:1010800080841E0000093D0040420F002DE9F84F0A
:1010900004460F4690461E46FFF720FD05464FF0DA
:1010A000000994F83D0020287ED1192301226349CC
:1010B0002046009504F060F910B10220BDE8F88FD9
:1010C00000BF94F83C00012801D10220F6E701207E
:1010D00084F83C0000BF2068006800F0010028B9D7
:1010E0002068006840F001002168086020680068FE
:1010F00020F4006021680860242084F83D0000206E
:1011000020644F48E06200BF2068006840F48070AF
:1011100021680860334600224FF0011120460095F7
:1011200004F02AF958B12068006800F48070B0F526
:10113000807F02D14FF4007020640320BEE707F0E7
:10114000FE0021680861FFF7C9FC05462068406978
:10115000C0F3400A20684069C0F3802B10E0FFF71D
:10116000BDFC401BB04200D816B9A02084F83D0059
:1011700020684069C0F3400A20684069C0F3802BB2
:1011800094F83D00A02805D0BAF1000F02D1BBF1C0
:10119000000FE4D0202084F83D0020684069C0F3AF
:1011A000400028B3206800E045E0006840F400708B
:1011B0002168086000BF002000902068406900900E
:1011C00020688069009000BF00BF192301221B49DD
:1011D0002046009504F0D0F808B101206EE72020E9
:1011E00084F83D0000BF002084F83C0000BF65E7A4
:1011F0002068006840F40070216808606FF4806027
:1012000021684861192301220C492046009504F009
:10121000B3F808B1012051E709F10109C145FFF414
:1012200073AF202084F83D0000BF002084F83C000C
:1012300000BF012042E7022040E70000020010004A
:101240000000FFFF70477047704700002DE9F8432A
:101250000446894616461F46DDF82080FFF73EFC0F
:10126000054694F83D0020287ED1192301225149DA
:101270002046009504F080F810B10220BDE8F88304
:1012800000BF94F83C00012801D10220F6E70120BC
:1012900084F83C0000BF2068006800F0010028B915
:1012A0002068006840F0010021680860206800683C
:1012B00020F4006021680860212084F83D0010209F
:1012C00084F83E000020206466626785608D20857A
:1012D0003948E0622B4642464946204603F03CFA34
:1012E00008B10120CAE700BF0020009020684069D3
:1012F000009020688069009000BF00BF44E02A464B
:101300004146204604F046F950B1206C042805D12E
:101310002068006840F40070216808600120ADE793
:10132000606A007821680861606A401C6062608DB4
:10133000401E6085208D401E208520684069C0F3D6
:10134000800070B1208D60B1606A0078216808610A
:10135000606A401C6062608D401E6085208D401E6A
:1013600020852A46414600E022E0204603F0D6FFD1
:1013700050B1206C042805D12068006840F400704A
:1013800021680860012079E7208D0028B7D1206806
:10139000006840F4007021680860202084F83D0057
:1013A000002084F83E0000BF84F83C0000BF65E7E1
:1013B000022063E7020010000000FFFF7047704743
:1013C0002DE9FC5F0446884691461E46DDE90CABDC
:1013D0000E9FFFF783FB0546012E01D0102E00D192
:1013E00004E040F63421B5A006F06FFA94F83D0011
:1013F000202870D119230122BE492046009503F010
:10140000BBFF10B10220BDE8FC9F00BF94F83C0078
:10141000012801D10220F6E7012084F83C0000BF3A
:101420002068006800F0010028B92068006840F0DA
:101430000100216808602068006820F400602168CD
:101440000860222084F83D00402084F83E000020FF
:101450002064C4F824A0A4F82AB0608D2085A64892
:10146000E06233464A4641462046CDE9007503F026
:1014700087FC08B10120C6E7208D88B900BF002095
:10148000019020684069019020688069019000BF48
:1014900000BF2068006840F400702168086040E0E8
:1014A000208D012818D12068006820F48060216810
:1014B000086000BF0020019020684069019020680A
:1014C0008069019000BF00BF2068006840F4007090
:1014D0002168086025E0EFE0208D022816D1206801
:1014E000006820F48060216808602068006840F48B
:1014F00000602168086000BF0020019020684069FA
:10150000019020688069019000BF0AE000BF0020C0
:10151000019020684069019020688069019000BFB7
:1015200000BFBAE0208D03287ED8208D012815D178
:101530002A463946204603F0C4FF08B1012062E77D
:1015400020680069616A0870606A401C6062208DD2
:10155000401E2085608D401E60859EE0208D022803
:101560002AD13B46002265492046009503F004FF3E
:1015700008B1012047E72068006840F40070216846
:10158000086020680069616A0870606A401C6062D7
:10159000208D401E2085608D401E6085206800697A
:1015A000616A0870606A401C6062208D401E208560
:1015B000608D401E608570E03B4600224F4920460A
:1015C000009503F0D9FE08B101201CE720680068EF
:1015D00020F480602168086020680069616A0870F2
:1015E000606A401C6062208D401E2085608D401E18
:1015F00060853B46002241492046009503F0BCFE31
:1016000008B10120FFE62068006840F400702168FE
:10161000086020680069616A0870606A401C606246
:10162000208D401E208500E010E0608D401E60850A
:1016300020680069616A0870606A401C6062208DE1
:10164000401E2085608D401E608526E02A46394672
:10165000204603F036FF08B10120D4E62068006977
:10166000616A0870606A401C6062208D401E20859F
:10167000608D401E608520684069C0F3800060B1C5
:1016800020680069616A0870606A401C6062208D91
:10169000401E2085608D401E6085208D00287FF4CF
:1016A00041AF202084F83D00002084F83E0000BFB8
:1016B00084F83C0000BFA6E60220A4E62E2E2F44AC
:1016C0007269766572732F53544D3332463478788D
:1016D0005F48414C5F4472697665722F5372632F85
:1016E00073746D3332663478785F68616C5F693229
:1016F000632E6300020010000000FFFF04000100E1
:101700002DE9FC5F0446884691461D46DDE90CAB99
:101710000E9FFFF7E3F90646012D01D0102D00D1F1
:1017200004E040F6B91152A006F0CFF894F83D005D
:1017300020287DD1192301225B492046009603F021
:101740001BFE10B10220BDE8FC9F00BF94F83C00D6
:10175000012801D10220F6E7012084F83C0000BFF7
:101760002068006800F0010028B92068006840F097
:101770000100216808602068006820F4006021688A
:101780000860212084F83D00402084F83E000020BD
:101790002064C4F824A0A4F82AB0608D20854348B2
:1017A000E0622B464A4641462046CDE9007603F0EA
:1017B00097FB08B10120C6E731E0324639462046A2
:1017C00003F0E8FE50B1206C042805D120680068C1
:1017D00040F40070216808600120B4E7606A007876
:1017E00021680861606A401C6062208D401E20856F
:1017F000608D401E608520684069C0F3800070B134
:10180000208D60B1606A007821680861606A401CC0
:101810006062208D401E2085608D401E6085208D79
:101820000028CAD132463946204603F077FD00E051
:101830001CE050B1206C042805D12068006840F4F9
:1018400000702168086001207DE72068006840F48E
:10185000007021680860202084F83D00002084F892
:101860003E0000BF84F83C0000BF6CE702206AE73E
:101870002E2E2F447269766572732F53544D333276
:10188000463478785F48414C5F4472697665722FC0
:101890005372632F73746D3332663478785F686186
:1018A0006C5F6932632E6300020010000000FFFFCE
:1018B00010B586B00446142101A8FEF74CFD23495B
:1018C000206888423FD100BF002000902048006877
:1018D00040F002001E4908600846006800F002005F
:1018E000009000BF00BFC020019012200290002095
:1018F0000390032004900420059001A91548FEF7E9
:101900003BFE00BF0020009011481030006840F4FA
:1019100000100F49103108600846006800F40010FC
:10192000009000BF00BF002211461F2000F0D4F835
:101930001F2000F09BF800221146202000F0CCF878
:10194000202000F093F806B010BD000000540040C5
:101950003038024000040240704770470348006876
:10196000034909780844014908607047A80000202D
:10197000B000002010B50D48006840F400700B491D
:1019800008600846006840F4806008600846006807
:1019900040F480700860032000F008F9072000F090
:1019A00007F800F02BF8002010BD0000003C0240BA
:1019B00070B504460E4800784FF47A71B1FBF0F030
:1019C0000C490968B1FBF0F5284600F019FE08B192
:1019D000012070BD102C07D200222146501E00F0BD
:1019E0007BF80548046001E00120F2E70020F0E701
:1019F000B0000020B4000020AC00002008B500BFFB
:101A0000002000901848006840F4804016490860A3
:101A10000846006800F48040009000BF00BF00BF8F
:101A200000200090081F006840F08050091F0860E7
:101A30000846006800F08050009000BF00BF0420FE
:101A400000F0B4F800220121052000F045F805203F
:101A500000F00CF800221146512000F03DF8512012
:101A600000F004F808BD00004438024010B50446F8
:101A7000002C00DB03E0BC2108A005F026FF204677
:101A8000002809DB00F01F02012191404209920069
:101A900002F1E022C2F8001100BF10BD2E2E2F442B
:101AA0007269766572732F53544D333246347878A9
:101AB0005F48414C5F4472697665722F5372632FA1
:101AC00073746D3332663478785F68616C5F636F0E
:101AD000727465782E6300002DE9F05F80460C4635
:101AE00015460027102D00D203E0A82120A005F004
:101AF000ECFE102C00D203E0A9211DA005F0E5FEAC
:101B000005F0E4FD0746394622462B4601F0070062
:101B1000C0F1070ABAF1040F02D94FF0040A01E03C
:101B2000C0F1070AD14600F1040ABAF1070F02D248
:101B30004FF0000A01E0A0F1030AD4464FF0010A79
:101B40000AFA09FAAAF1010A0AEA020A0AFA0CFADE
:101B50004FF0010B0BFA0CFBABF1010B0BEA030B83
:101B60004AEA0B063146404605F0B8FDBDE8F09F55
:101B70002E2E2F447269766572732F53544D333273
:101B8000463478785F48414C5F4472697665722FBD
:101B90005372632F73746D3332663478785F686183
:101BA0006C5F636F727465782E63000010B5044635
:101BB000072C07D0062C05D0052C03D0042C01D00F
:101BC000032C00D103E0902109A005F07EFE00BFA8
:101BD00004F00701154A10684FF6FF021040144A3E
:101BE000024342EA0120114A106000BF10BD00000C
:101BF0002E2E2F447269766572732F53544D3332F3
:101C0000463478785F48414C5F4472697665722F3C
:101C10005372632F73746D3332663478785F686102
:101C20006C5F636F727465782E6300000CED00E0EA
:101C30000000FA0570B504460D460CB9012070BDD0
:101C40002068012803D320680F2800D804E040F260
:101C50005A2195A005F039FE6DB1012D0BD0022D52
:101C600009D0032D07D0042D05D0052D03D0062D56
:101C700001D0072D00D104E040F25B218AA005F0DD
:101C800024FE9748006800F00700A84209D2944952
:101C90000D700846006800F00700A84201D001203E
:101CA000CDE7207800F0020002283DD1207800F036
:101CB0000400042805D18B48006840F4E0508949AD
:101CC0000860207800F00800082805D185480068E1
:101CD00040F4604083490860A068B8B1A0688028DB
:101CE00014D0A068902811D0A068A0280ED0A068B9
:101CF000B0280BD0A068C02808D0A068D02805D094
:101D0000A068E02802D0A068F02800D104E040F2EA
:101D10007E2165A005F0D9FD7248006820F0F00032
:101D2000A16808436F490860207800F0010000288E
:101D30004ED0606840B16068012805D06068022814
:101D400002D06068032800D104E040F2852156A04B
:101D500005F0BBFD6068012807D1624808380068BB
:101D6000C0F34040B8B9012069E76068022802D09A
:101D70006068032807D15B4808380068C0F34060FA
:101D800048B901205BE7574808380068C0F34000B5
:101D900008B9012053E75348006820F00300616848
:101DA000084350490860FEF799FE064608E0FEF732
:101DB00095FE801B41F28831884201D903203EE71D
:101DC0004848006800F00C006168B0EB810FEED16C
:101DD0004348006800F00700A84209D940490D7047
:101DE0000846006800F00700A84201D0012026E75D
:101DF000207800F0040004281FD1E06878B1E06882
:101E0000B0F5805F0BD0E068B0F5A05F07D0E06868
:101E1000B0F5C05F03D0E068B0F5E05F00D104E04A
:101E200040F2C32120A005F050FD2E48006820F4A8
:101E3000E050E16808432B490860207800F0080072
:101E4000082820D1206978B12069B0F5805F0BD0D7
:101E50002069B0F5A05F07D02069B0F5C05F03D05E
:101E60002069B0F5E05F00D104E040F2CA210EA085
:101E700005F02BFD1B48006820F46040216940EA12
:101E8000C1001849086000F05BF816490968C1F301
:101E90000311154A515CC840144908601448006891
:101EA000FFF786FD0020CAE62E2E2F447269766564
:101EB00072732F53544D3332463478785F48414C17
:101EC0005F4472697665722F5372632F73746D333A
:101ED00032663478785F68616C5F7263632E63008A
:101EE000003C024008380240C9940008B4000020B9
:101EF000AC0000200148006870470000B4000020DA
:101F000000B5FFF7F7FF04490968C1F38221034ACE
:101F1000515CC84000BD000008380240D994000858
:101F200000B5FFF7E7FF04490968C1F34231034AEE
:101F3000515CC84000BD000008380240D994000838
:101F40002DE9F047002400250026A1462548006819
:101F500000F00C0020B1042805D008283AD105E093
:101F6000DFF8849039E0DFF8849036E01D48001FE8
:101F7000006800F03F041B48001F006800F4800068
:101F800078B11A481749091F0968C1F38811A0FBE5
:101F900001700146224600233846FEF765F90546E2
:101FA0000EE011480F49091F0968C1F38811A0FB11
:101FB00001700146224600233846FEF755F90546D2
:101FC0000848001F0068C0F30140401C4600B5FBF4
:101FD000F6F902E0DFF8109000BF00BF4846BDE808
:101FE000F0870000083802400024F40040787D01AA
:101FF000F8B504460CB90120F8BD20680F2800D8B8
:1020000003E0E621FBA005F060FC207800F0010071
:10201000002870D0606838B16068B0F5803F03D0A8
:102020006068B0F5A02F00D103E0EB21F1A005F02E
:102030004CFCFE48006800F00C0004280DD0FB4862
:10204000006800F00C00082813D1F848001F006851
:1020500000F48000B0F5800F0BD1F4480838006818
:10206000C0F34040002859D06068002856D10120B4
:10207000C2E700BF6068B0F5803F08D1EB48083880
:10208000006840F48030E949083908601EE0606863
:10209000B0F5A02F0DD1E5480838006840F4802045
:1020A000E249083908600846006840F4803008605A
:1020B0000CE0DE480838006820F48030DB4908393D
:1020C00008600846006820F48020086000BF60684F
:1020D00090B1FEF703FD054606E0FEF7FFFC401B4E
:1020E000642801D9032087E7D04808380068C0F386
:1020F00040400028F1D011E0FEF7F0FC054606E074
:10210000FEF7ECFC401B642801D9032074E7C748A4
:1021100008380068C0F340400028F1D1207800F072
:102120000200022873D1E06810B1E068012800D1F4
:1021300004E040F21D11AFA005F0C7FB20691F2885
:1021400000D804E04FF48F71AAA005F0BEFBB74899
:10215000006800F00C0058B1B448006800F00C00B2
:1021600008281CD1B148001F006800F48000B0B9F5
:10217000AE4808380068C0F3400020B1E06801288C
:1021800001D0012038E7A9480838006820F0F8009D
:10219000216940EAC100A5490839086037E0E068D4
:1021A00000B30120A2490860FEF798FC054606E04E
:1021B000FEF794FC401B022801D903201CE79B4832
:1021C00008380068C0F340000028F1D0974808386C
:1021D000006820F0F800216940EAC10093490839FD
:1021E000086014E0002092490860FEF777FC05467D
:1021F00006E0FEF773FC401B022801D90320FBE632
:102200008A4808380068C0F340000028F1D12078DF
:1022100000F00800082837D1606910B16069012812
:1022200000D104E04FF4AF7172A005F04EFB60697D
:10223000A8B101207F490860FEF750FC054606E082
:10224000FEF74CFC401B022801D90320D4E6774856
:102250006C300068C0F340000028F1D014E000208A
:1022600074490860FEF73AFC054606E0FEF736FCC6
:10227000401B022801D90320BEE66C486C30006880
:10228000C0F340000028F1D1207800F004000428B9
:1022900075D10027A06828B1A068012802D0A068E5
:1022A000052800D104E04FF4C57152A005F00DFBE4
:1022B0005E483830006800F0805090B900BF0020C0
:1022C00000905A483830006840F080505749383103
:1022D00008600846006800F08050009000BF00BF12
:1022E00001275548006800F48070B0B95248006872
:1022F00040F4807050490860FEF7F0FB054606E0A8
:10230000FEF7ECFB401B022801D9032074E64A4883
:10231000006800F480700028F2D000BFA068012897
:1023200008D142486830006840F001003F496831F8
:1023300008601DE0A06805280DD13C4868300068A1
:1023400040F004003949683108600846006840F0F0
:10235000010008600CE035486830006820F001009A
:102360003249683108600846006820F004000860BF
:1023700000BFA068A8B1FEF7B1FB054609E02FE059
:10238000FEF7ACFB401B41F28831884201D90320A3
:1023900032E6264868300068C0F340000028EFD0DD
:1023A00013E0FEF79BFB054608E0FEF797FB401B9A
:1023B00041F28831884201D903201DE61B4868306C
:1023C0000068C0F340000028EFD1012F07D1174863
:1023D0003830006820F0805014493831086000BF60
:1023E000A06928B1A069012802D0A069022825D1DE
:1023F0002AE000002E2E2F447269766572732F53E7
:10240000544D3332463478785F48414C5F447269AA
:102410007665722F5372632F73746D33326634781E
:10242000785F68616C5F7263632E630008380240F6
:1024300000004742800E47420070004040F2CD113C
:10244000AFF2500005F041FAA06900287CD06A483C
:10245000006800F00C00082877D0A069022875D128
:10246000E06918B1E069B0F5800F00D105E04FF4E4
:10247000EB71AFF2800005F028FA206A3F2800D8FF
:1024800005E040F2D711AFF2940005F01EFA606A41
:10249000322804D3606AB0F5D87F00D805E04FF445
:1024A000EC71AFF2B00005F010FAA06A022808D073
:1024B000A06A042805D0A06A062802D0A06A0828CD
:1024C00000D105E040F2D911AFF2D80005F0FDF9D6
:1024D000E06A022803D3E06A0F2800D805E04FF431
:1024E000ED71AFF2F00005F0F0F900204349086605
:1024F000FEF7F4FA054606E0FEF7F0FA401B022864
:1025000001D9032078E53C4808380068C0F34060F2
:102510000028F1D1D4E907010843616A40EA81113A
:102520000122A06AC2EB500041EA00412C20005D6C
:1025300041EA00603049091F086001202F49086600
:10254000FEF7CCFA054609E053E025E00EE0FEF781
:10255000C5FA401B022801D903204DE5264808385A
:102560000068C0F340600028F1D042E00020234919
:102570000866FEF7B3FA054606E0FEF7AFFA401B21
:10258000022801D9032037E51B4808380068C0F34A
:1025900040600028F1D12CE0A069012800D12BE592
:1025A0001548001F0668A069012820D006F48001A4
:1025B000E06981421BD106F03F01206A814216D1B9
:1025C00047F6C0703040616AB0EB811F0FD106F44E
:1025D00040310122A06AC2EB5000B1EB004F06D19E
:1025E00006F070612C20005DB1EB006F01D001207E
:1025F00002E5002000E500000838024000004742E4
:1026000070B504462546681EB0F1807F01D30120D5
:102610000FE0681E4FF0E02148610F214FF0FF30BE
:1026200005F05CF800204FF0E02188610720086188
:10263000002070BD7047704770B506460C460025F7
:102640004E493068884203D04D493068884200D1F5
:1026500004E040F2EE714BA005F037F92068B0F5C8
:10266000006F01D0206800B904E040F2EF7145A08E
:1026700005F02BF96068B0F5806F01D0606800B993
:1026800004E04FF4FE613FA005F01FF9A06858B1C7
:10269000A068B0F5807F07D0A068B0F5007F03D0B8
:1026A000A068B0F5407F00D104E040F2F17135A0A0
:1026B00005F00BF9E068FF2800D804E040F2F27161
:1026C00030A005F002F92069B0F5805F01D02069E3
:1026D00000B904E040F2F3712AA005F0F6F8606951
:1026E00018B16069B0F5005F00D104E040F2F47108
:1026F00024A005F0EAF8E069B0F5804F01D0E06968
:1027000000B904E040F2F5711EA005F0DEF800BF4C
:1027100096F83C00012801D1022070BD012086F806
:102720003C0000BF25F0FF00E16840EA010525F408
:102730004070A16840EA010525F48060616840EAC4
:10274000010525F40060216840EA010525F4805068
:10275000216940EA010525F40050616940EA01055C
:1027600025F48040E16940EA01053068456400BF16
:10277000002086F83C0000BF00BFCEE7000001400B
:10278000000401402E2E2F447269766572732F5318
:10279000544D3332463478785F48414C5F44726917
:1027A0007665722F5372632F73746D33326634788B
:1027B000785F68616C5F74696D5F65782E63000097
:1027C0002DE9F04104460D464B49206888421BD054
:1027D0002068B0F1804F17D048492068884213D054
:1027E0004749206888420FD04649206888420BD06C
:1027F00045492068884207D044492068884203D070
:1028000043492068884200D104E040F2B17141A000
:1028100005F05BF82868A0B12868102811D0286856
:1028200020280ED0286830280BD02868402808D0EF
:102830002868502805D02868602802D028687028A9
:1028400000D104E040F2B27132A005F03EF86868B1
:10285000802801D0686800B904E040F2B3712DA06F
:1028600005F033F800BF94F83C00012802D10220A3
:10287000BDE8F081012084F83C0000BF022084F80C
:102880003D00206847682068866827F07007286840
:102890000743206847601849206888421BD0206899
:1028A000B0F1804F17D015492068884213D01449E1
:1028B000206888420FD01349206888420BD0144901
:1028C0002068884207D022492068884203D02149E5
:1028D0002068884205D126F0800668680643206893
:1028E0008660012084F83D0000BF002084F83C0091
:1028F00000BF00BFBCE70000000001400004004032
:1029000000080040000C004000100040001400408F
:10291000000401402E2E2F447269766572732F5386
:10292000544D3332463478785F48414C5F44726985
:102930007665722F5372632F73746D3332663478F9
:10294000785F68616C5F74696D5F65782E63000005
:10295000004001400018004010B504460CB90120A9
:1029600010BD4D492068884233D02068B0F1804FB7
:102970002FD04A49206888422BD049492068884294
:1029800027D048492068884223D047492068884298
:102990001FD04649206888421BD04549206888429C
:1029A00017D044492068884213D0434920688842A0
:1029B0000FD04249206888420BD0414920688842A4
:1029C00007D040492068884203D03F4920688842A8
:1029D00000D104E040F213113CA004F076FFA0689F
:1029E00058B1A068102808D0A068202805D0A06899
:1029F000402802D0A068602800D104E04FF48A711A
:102A000032A004F062FF206938B12069B0F5807F00
:102A100003D02069B0F5007F00D104E040F2151129
:102A20002AA004F052FFA06910B1A069802800D14B
:102A300004E04FF48B7125A004F047FF94F83D00AB
:102A400028B9002084F83C00204600F05BF8022002
:102A500084F83D00211D206804F050F8012084F81E
:102A6000460000BF84F83E0001213F200155402070
:102A700001554120015500BF00BF012084F84200EC
:102A800043200155442001554520015500BF012038
:102A900084F83D00002063E700000140000400408E
:102AA00000080040000C00400010004000140040EE
:102AB0000004014000400140004401400048014042
:102AC00000180040001C0040002000402E2E2F4423
:102AD0007269766572732F53544D33324634787869
:102AE0005F48414C5F4472697665722F5372632F61
:102AF00073746D3332663478785F68616C5F7469C3
:102B00006D2E630038B504462068B0F1804F18D1AF
:102B100000BF002000902248006840F001002049DA
:102B200008600846006800F00100009000BF00BF88
:102B3000002211461C20FEF7CFFF1C20FEF796FF57
:102B40002DE018492068884229D100BF002000905C
:102B50001348001D006840F002001149091D08607B
:102B60000846006800F00200009000BF00BF00228D
:102B700011462B20FEF7B0FF2B20FEF777FF002237
:102B800011462C20FEF7A8FF2C20FEF76FFF002235
:102B900011462E20FEF7A0FF2E20FEF767FF38BD5E
:102BA000403802400004014070B504463D492068A9
:102BB000884233D02068B0F1804F2FD03A49206846
:102BC00088422BD039492068884227D0384920686C
:102BD000884223D03749206888421FD03649206870
:102BE00088421BD035492068884217D03449206874
:102BF000884213D03349206888420FD03249206878
:102C000088420BD031492068884207D0304920687B
:102C1000884203D02F492068884200D104E04FF455
:102C2000CA712DA004F051FE94F83D00012801D096
:102C3000012070BD022084F83D001A4920688842B6
:102C40001BD02068B0F1804F17D017492068884208
:102C500013D01649206888420FD015492068884251
:102C60000BD016492068884207D015492068884251
:102C700003D01649206888420CD12068806800F093
:102C80000705062D0CD02068006840F0010021687F
:102C9000086005E02068006840F0010021680860D5
:102CA0000020C6E70000014000040040000800408A
:102CB000000C0040001000400014004000040140DF
:102CC000004001400044014000480140001800401D
:102CD000001C0040002000402E2E2F4472697665B3
:102CE00072732F53544D3332463478785F48414CD9
:102CF0005F4472697665722F5372632F73746D33FC
:102D000032663478785F68616C5F74696D2E630039
:102D10002DE9F04104460D46002700BF94F83C0021
:102D2000012802D10220BDE8F081012084F83C0096
:102D300000BF022084F83D002868B0F5805F1AD0FB
:102D40002868702817D02868B0F5005F13D028686D
:102D5000402810D0286850280DD0286860280AD054
:102D6000286840B12868102805D02868202802D09B
:102D70002868302800D104E041F2B741FDA004F0FA
:102D8000A4FD2068866826F0770626F47F46206832
:102D900086602868502878D00CDC202876D004DCA7
:102DA000002874D0102873D135E2302871D0402823
:102DB000F9D1A9E160286DD0702845D0B0F5805FC9
:102DC00003D0B0F5005FEED1A8E0F8492068884252
:102DD00033D02068B0F1804F2FD0F5492068884269
:102DE0002BD0F4492068884227D0F34920688842D4
:102DF00023D0F249206888421FD0F14920688842D8
:102E00001BD0F0492068884217D0EF4920688842DB
:102E100013D0EE49206888420FD0ED4920688842DF
:102E20000BD0EC492068884207D0EB4920688842E3
:102E300003D0EA492068884200D104E041F2C3414E
:102E4000CCA004F042FD16E2D849206888421BD08D
:102E50002068B0F1804F17D0D5492068884213D040
:102E6000D449206888420FD0D349206888420BD0CB
:102E7000D4492068884207D0D3492068884203D0CB
:102E8000D4492068884206D10AE0A3E0C4E1C1E148
:102E9000EFE1C2E1EBE041F2CA41B6A004F015FD5A
:102EA000A86858B1A868B0F5805F07D0A868B0F5E9
:102EB000005F03D0A868B0F5405F00D104E041F2A4
:102EC000CD41ACA004F001FD6868B0F5004F09D019
:102ED000686838B1686828B16868022802D06868F4
:102EE0000A2800D104E041F2CE41A2A004F0EDFC9A
:102EF000E8680F2800D804E041F2CF419DA004F01B
:102F0000E4FCD5E902136A68206803F0E5FE206856
:102F1000866846F0770620688660ACE1A3492068A1
:102F2000884213D02068B0F1804F0FD0A0492068AC
:102F300088420BD09F492068884207D09E4920686C
:102F4000884203D09F492068884200D104E041F2C2
:102F5000E24188A004F0B9FCA86858B1A868B0F5AF
:102F6000805F07D0A868B0F5005F03D0A868B0F50F
:102F7000405F00D104E041F2E5417EA004F0A5FCF1
:102F80006868B0F5004F09D0686838B1686828B142
:102F90006868022802D068680A2800D104E041F27B
:102FA000E64174A004F091FCE8680F2800D804E022
:102FB00041F2E7416FA004F088FCD5E902136A688A
:102FC000206803F089FE2068806840F48040216812
:102FD000886050E17549206888421BD02068B0F1B4
:102FE000804F17D072492068884213D071492068F9
:102FF00088420FD07049206888420BD07149206800
:10300000884207D070492068884203D071492068FF
:10301000884200D104E041F2F64156A004F055FC8C
:103020006868B0F5004F09D0686838B1686828B1A1
:103030006868022802D068680A2800D104E041F2DA
:10304000F9414CA004F041FCE8680F2800D804E0E6
:1030500041F2FA4147A004F038FCEA686968206848
:1030600004F028F85021206803F041FE03E14F49A5
:10307000206888421BD02068B0F1804F17D04C499F
:103080002068884213D04B49206888420FD04A49B3
:10309000206888420BD04B492068884207D04A49B3
:1030A0002068884203D04B492068884200D104E060
:1030B00041F206512FA004F008FC6868B0F5004FFB
:1030C00009D0686838B1686828B16868022802D0F9
:1030D00068680A2800D104E041F2095125A004F0F3
:1030E000F4FBE8680F2800D804E041F20A5121A05F
:1030F00004F0EBFBEA686968206803F0EEFF6021EA
:10310000206803F0F4FDB6E02849206888421BD00F
:103110002068B0F1804F17D025492068884213D02D
:103120002449206888420FD02349206888420BD068
:1031300024492068884207D023492068884203D068
:1031400024492068884200D104E041F2165109A0C8
:1031500004F0BBFB6868B0F5004F09D0686838B16F
:10316000686828B16868022802D068680A2837D1E0
:103170003CE000002E2E2F447269766572732F5347
:10318000544D3332463478785F48414C5F4472691D
:103190007665722F5372632F73746D333266347891
:1031A000785F68616C5F74696D2E63000000014098
:1031B0000004004000080040000C004000100040E7
:1031C0000014004000040140004001400044014060
:1031D0000048014000180040001C00400020004052
:1031E00041F21951AFF2740004F06FFBE8680F2848
:1031F00000D805E041F21A51AFF2880004F065FBF7
:10320000EA686968206803F055FF4021206803F0F0
:103210006EFD30E000BF00BF00BF1C49206888423F
:103220001BD02068B0F1804F17D019492068884220
:1032300013D01849206888420FD017492068884267
:103240000BD016492068884207D01549206888426B
:1032500003D014492068884200D105E041F2295189
:10326000AFF2F00004F031FB2968206803F03FFD65
:1032700001E0012700BF00BF012084F83D0000BF2E
:10328000002084F83C0000BF38464CE500000140B7
:103290000004004000080040000C00400004014011
:1032A0000040014000180040704710B504462068F7
:1032B0000069C0F34000D8B12068C068C0F3400086
:1032C000B0B16FF00200216808610120207720680A
:1032D000806900F0030018B12046FFF7E5FF05E024
:1032E000204600F0DFF8204600F035FB0020207774
:1032F00020680069C0F38000D8B12068C068C0F3BE
:103300008000B0B16FF004002168086102202077CE
:103310002068806900F4407018B12046FFF7C4FFB0
:1033200005E0204600F0BEF8204600F014FB002027
:10333000207720680069C0F3C000D8B12068C06859
:10334000C0F3C000B0B16FF008002168086104202C
:1033500020772068C06900F0030018B12046FFF70D
:10336000A3FF05E0204600F09DF8204600F0F3FAA8
:103370000020207720680069C0F30010D8B12068D1
:10338000C068C0F30010B0B16FF010002168086190
:10339000082020772068C06900F4407018B12046EA
:1033A000FFF782FF05E0204600F07CF8204600F0A1
:1033B000D2FA002020772068006900F0010058B19F
:1033C0002068C06800F0010030B16FF00100216892
:1033D0000861204600F0D8FB20680069C0F3C010E7
:1033E00058B12068C068C0F3C01030B16FF08000E1
:1033F000216808612046FFF71DF920680069C0F3C5
:10340000801058B12068C068C0F3801030B16FF0F0
:10341000400021680861204600F0B7FB2068006981
:10342000C0F3401058B12068C068C0F3401030B1FC
:103430006FF02000216808612046FFF7FCF810BDFE
:1034400010B586B00446142101A8FCF784FF124988
:10345000206888421DD100BF002000900F480068FE
:1034600040F004000D4908600846006800F00400C0
:10347000009000BF00BF4FF47070019002200290D6
:103480000020039004900320059001A90448FDF753
:1034900073F806B010BD000000040140303802404F
:1034A00000080240704700002DE9F04104460D4637
:1034B000164600273EB1042E05D0082E03D00C2E50
:1034C00001D03C2E00D104E041F277019DA004F030
:1034D000FCF92868602802D02868702800D104E030
:1034E00041F2780197A004F0F0F9A86810B1A8683B
:1034F000022800D104E041F2790192A004F0E5F93C
:10350000286910B12869042800D104E041F27A0149
:103510008CA004F0DAF900BF94F83C00012802D135
:103520000220BDE8F081012084F83C0000BF36B1E4
:10353000042E51D0082E70D00C2E6FD1C1E08F49CF
:10354000206888422BD02068B0F1804F27D08C496A
:103550002068884223D08B49206888421FD08A493E
:10356000206888421BD089492068884217D0884942
:103570002068884213D08749206888420FD0864946
:10358000206888420BD085492068884207D084494A
:103590002068884203D083492068884200D104E033
:1035A00041F2840167A004F090F92946206803F0F5
:1035B000A7FB2068806940F00800216888612068C6
:1035C000806920F004002168886120688069296989
:1035D000084321688861ACE06849206888421BD0B4
:1035E0002068B0F1804F17D065492068884213D019
:1035F0006449206888420FD06349206888420BD014
:1036000062492068884207D061492068884203D017
:1036100062492068884202D106E01DE087E041F25D
:10362000950148A004F051F92946206803F0E6FB13
:103630002068806940F400602168886120688069A2
:1036400020F480602168886120688069296940EAE7
:103650000120216888616CE048492068884213D0C5
:103660002068B0F1804F0FD04549206888420BD0C8
:1036700044492068884207D043492068884203D0E3
:1036800042492068884200D104E041F2A6012DA001
:1036900004F01BF92946206803F032FC2068C06959
:1036A00040F008002168C8612068C06920F004006B
:1036B0002168C8612068C069296908432168C86118
:1036C00037E02E492068884213D02068B0F1804F3F
:1036D0000FD02B49206888420BD02A4920688842A5
:1036E00007D029492068884203D0284920688842A9
:1036F00000D104E041F2B70112A004F0E6F8294637
:10370000206803F07FFC2068C06940F400602168F5
:10371000C8612068C06920F480602168C8612068A1
:10372000C069296940EA01202168C86101E00127D8
:1037300000BF00BF00BF002084F83C0000BF384637
:10374000EFE600002E2E2F447269766572732F53B8
:10375000544D3332463478785F48414C5F44726947
:103760007665722F5372632F73746D3332663478BB
:10377000785F68616C5F74696D2E630000000140C2
:103780000004004000080040000C0040000401401C
:103790000040014000440140004801400018004042
:1037A000001C00400020004010B504460CB9012068
:1037B00010BD4D492068884233D02068B0F1804F59
:1037C0002FD04A49206888422BD049492068884236
:1037D00027D048492068884223D04749206888423A
:1037E0001FD04649206888421BD04549206888423E
:1037F00017D044492068884213D043492068884242
:103800000FD04249206888420BD041492068884245
:1038100007D040492068884203D03F492068884249
:1038200000D104E040F229513CA004F04EF8A06819
:1038300058B1A068102808D0A068202805D0A0683A
:10384000402802D0A068602800D104E040F22A514C
:1038500032A004F03AF8206938B12069B0F5807FD1
:1038600003D02069B0F5007F00D104E040F22B5175
:103870002AA004F02AF8A06910B1A069802800D11C
:1038800004E040F22C5125A004F01FF894F83D000C
:1038900028B9002084F83C00204600F05BF80220A4
:1038A00084F83D00211D206803F028F9012084F8E8
:1038B000460000BF84F83E0001213F200155402012
:1038C00001554120015500BF00BF012084F842008E
:1038D00043200155442001554520015500BF0120DA
:1038E00084F83D00002063E7000001400004004030
:1038F00000080040000C0040001000400014004090
:1039000000040140004001400044014000480140E3
:1039100000180040001C0040002000402E2E2F44C4
:103920007269766572732F53544D3332463478780A
:103930005F48414C5F4472697665722F5372632F02
:1039400073746D3332663478785F68616C5F746964
:103950006D2E63007047704770B504460D4671497F
:103960002068884207D1002D62D0042D60D0082D38
:103970005ED00C2D5CD02068B0F1804F07D1002DB7
:1039800056D0042D54D0082D52D00C2D50D066495D
:103990002068884207D1002D4AD0042D48D0082D38
:1039A00046D00C2D44D061492068884206D1EDB341
:1039B000042D3DD0082D3BD00C2D39D05C4920681A
:1039C000884206D195B3042D32D0082D30D00C2D6D
:1039D0002ED058492068884206D13DB3042D27D007
:1039E000082D25D00C2D23D053492068884202D1C0
:1039F000E5B1042D1CD051492068884200D1ADB1F9
:103A00004F492068884200D185B14E4920688842DC
:103A100002D15DB1042D0BD04B492068884200D102
:103A200025B14A492068884203D100E000E005B989
:103A300004E040F2AF5146A003F047FF15B994F8F7
:103A40003E000BE0042D02D13F20005D06E0082D72
:103A500002D14020005D01E04120005D012801D03D
:103A6000012070BD1DB9022084F83E000EE0042D37
:103A700003D102213F20015508E0082D03D1022186
:103A80004020015502E00221412001550122294632
:103A9000206803F09FF823492068884203D0254915
:103AA0002068884201D1012000E0002028B1206870
:103AB000406C40F40040216848641A4920688842FC
:103AC0001BD02068B0F1804F17D01749206888427A
:103AD00013D01649206888420FD0154920688842C3
:103AE0000BD014492068884207D0134920688842C7
:103AF00003D01449206888420CD12068806800F007
:103B00000706062E0CD02068006840F001002168EE
:103B1000086005E02068006840F001002168086046
:103B200000209EE700000140000400400008004023
:103B3000000C0040000401400040014000440140EE
:103B40000048014000180040001C004000200040D8
:103B50002E2E2F447269766572732F53544D333273
:103B6000463478785F48414C5F4472697665722FBD
:103B70005372632F73746D3332663478785F686183
:103B80006C5F74696D2E63007047704770477047B3
:103B90002DE9F84F0446206805682068C66820684B
:103BA00047694FF00009CA4605F00F09B9F1000F47
:103BB0000AD105F0200038B106F0200020B12046DF
:103BC00003F0F8FABDE8F88FB9F1000F7CD007F0E8
:103BD000010018B906F49070002875D005F00100B6
:103BE00030B106F4807018B1206C40F00100206400
:103BF00005F0040030B107F0010018B1206C40F06E
:103C00000200206405F0020030B107F0010018B195
:103C1000206C40F00400206405F0080048B106F074
:103C2000200010B907F0010018B1206C40F0080026
:103C30002064206C002846D005F0200028B106F052
:103C4000200010B1204603F0B5FA20684069C0F3A7
:103C5000801A206C00F0080010B9BAF1000F2DD0C6
:103C6000204603F061FA2068406900F040004028D7
:103C700020D100BF00BF2168143151E8001F21F09E
:103C800040002168143141E80002002AF3D100BF4E
:103C9000A06B50B17548A16B0865A06BFCF73FFCA9
:103CA00088B1A06B016D88470DE02046FFF76FFFDC
:103CB00009E009E02046FFF76AFF04E02046FFF72D
:103CC00066FF002020647DE7206B012876D105F097
:103CD0001000002872D006F010000028FAD000BFB3
:103CE00000200090206800680090206840680090E4
:103CF00000BF00BF2068406900F0400040285ED14E
:103D0000A06B006840681FFA80F8B8F1000F54D02B
:103D1000A08D404551DDA4F82E80A06BC069B0F5A0
:103D2000807F43D000BF00BF21680C3151E8001FE5
:103D300021F4807021680C3141E80002002AF3D19F
:103D400000BF00BF00BF2168143151E8001F21F0FF
:103D500001002168143141E80002002AF3D100BFBC
:103D600000BF00BF2168143151E8001F21F040005E
:103D70002168143141E80002002AF3D100BF20205D
:103D800084F83E000020206300BF00BF21680C3192
:103D900051E8001F21F0100021680C3141E80002B9
:103DA000002AF3D100BFA06BFCF763FBA08DE28D6E
:103DB000801A81B22046FFF7E9FE03E740E0A08DBC
:103DC000E18D401A1FFA80F8E08DC0B3B8F1000F02
:103DD00035D000BF00BF21680C3151E8001F21F42D
:103DE000907021680C3141E80002002AF3D100BF35
:103DF00000BF00BF2168143151E8001F21F001000D
:103E00002168143141E80002002AF3D100BF2020CC
:103E100084F83E000020206300BF00BF21680C3101
:103E200051E8001F21F0100021680C3141E8000228
:103E3000002AF3D100BF41462046FFF7A7FEC1E6A6
:103E400005F0800030B106F0800018B1204603F084
:103E5000C2FBB7E605F0400030B106F0400018B1F3
:103E6000204603F097F9ADE600BFABE615710008F8
:103E700010B504460CB9012010BDA06900282AD055
:103E80004849206888420BD047492068884207D0BB
:103E900046492068884203D045492068884200D1BD
:103EA00004E040F2731143A003F00FFDA06958B184
:103EB000A069B0F5807F07D0A069B0F5007F03D07E
:103EC000A069B0F5407F00D123E04FF4BA7139A06A
:103ED00003F0FBFC1DE033492068884213D03249CF
:103EE000206888420FD03149206888420BD0404971
:103EF0002068884207D03F492068884203D02C4977
:103F00002068884200D104E04FF4BC7129A003F07E
:103F1000DCFCA06818B1A068B0F5805F00D104E0B7
:103F20004FF4BD7123A003F0D0FCE06918B1E06943
:103F3000B0F5004F00D104E040F27B111DA003F06A
:103F4000C4FC94F83D0028B9002084F83C002046C9
:103F500000F052F8242084F83D002068C06820F466
:103F600000502168C860204603F0A0F9206800696D
:103F700020F49040216808612068406920F02A0000
:103F8000216848612068C06840F400502168C8601A
:103F900000202064202084F83D0084F83E000020AA
:103FA0006AE7000000100140004400400048004063
:103FB000001401402E2E2F447269766572732F53C0
:103FC000544D3332463478785F48414C5F447269CF
:103FD0007665722F5372632F73746D333266347843
:103FE000785F68616C5F756172742E630000000019
:103FF000004C00400050004010B586B0044614212B
:1040000001A8FCF7A8F91F492068884238D100BFF1
:10401000002000901C48006840F400201A49086005
:104020000846006800F40020009000BF00BF00BFF9
:104030000020009014481038006840F00400124935
:10404000103908600846006800F00400009000BFC6
:1040500000BF4FF4406001900220029000200390C6
:10406000032004900820059001A90848FCF784FA71
:10407000002201213420FDF72FFD3420FDF7F6FC4E
:1040800006B010BD004C004040380240000802401D
:1040900070B504460D46164694F83E00202816D109
:1040A00005B10EB9012070BD00BF94F83C00012895
:1040B00001D10220F7E7012084F83C0000BF002076
:1040C000206332462946204603F060FAEBE70220DF
:1040D000E9E7000010B5044617492068884229D155
:1040E000164800781649174A1278885415480078FF
:1040F00048B908460078552805D001220F491248D2
:10410000FFF7C6FF04E00F480078401C0D49087017
:104110000C4800780B2808D109484078532801D171
:1041200001F066FA00200749087001220349064899
:10413000FFF7AEFF10BD0000004C00401300002050
:10414000A801002034000020AC0200202DE9F84F27
:1041500004460E46174699464FF0000A94F83D0073
:1041600020285AD106B117B90120BDE8F88F00BF49
:1041700094F83C00012801D10220F6E7012084F8E0
:104180003C0000BF00202064212084F83D00FCF7A3
:10419000A5FC8246A784E784A068B0F5805F04D1BF
:1041A000206910B90025B04602E035464FF00008FE
:1041B00000BF002084F83C0000BF1BE053460022F3
:1041C00080212046CDF8009003F035FA08B1032095
:1041D000CBE745B9B8F80000C0F308002168486093
:1041E00008F1020803E02878216848606D1CE08C23
:1041F000401EE084E08C0028E0D15346002240219C
:104200002046CDF8009003F016FA08B10320ACE781
:10421000202084F83D000020A7E70220A5E7704792
:1042200000BFFEE710B50248FCF760FC10BD0000BF
:10423000C801002010B50248FCF7C2FC10BD000008
:10424000C8010020C16AB1F52A0F02D10121C16263
:1042500005E0C16AB1F12A4F01D10821C16270475E
:10426000F8B5054600200090AC6B94F83D603948E5
:1042700000681921B0FBF1F04FF47A71B0FBF1F056
:10428000C0EBC00000EB8000009000BF009820B998
:10429000206C40F02000206409E00098401E00904F
:1042A0002068006800F40070B0F5007FEED000BF19
:1042B000606B10B10020616BC863A06B10B100206F
:1042C000A16BC8632068006820F4806021680860E2
:1042D00000206085606B10B10020616B0865A06BE9
:1042E00010B10020A16B08652068006820F0010073
:1042F0002168086094F83D0060280AD1202084F8E5
:104300003D00002084F83E0020642046FCF7ECFBD2
:104310001EE006F02800282811D12068006840F02F
:104320000100216808602068006840F4806021680E
:10433000086000202063282084F83D0005E020204C
:1043400084F83D00002084F83E002046FCF725FD5F
:10435000F8BD0000B40000202DE9F041044694F8B7
:104360003D6094F83E70102F01D0402F07D1222ECF
:1043700005D12068006820F400602168086006F01C
:104380002800282805D100202063282084F83D003B
:1043900010E02068406800F40060B0F5006F07D0BE
:1043A000602E05D0202084F83D00002084F83E00D7
:1043B000002020632068406800F40060B0F5006FC2
:1043C00040D12068406820F4006021684860606B3C
:1043D00090F83500012814D04848616B0865606B7F
:1043E000FCF79DF800285BD02068006820F00100F1
:1043F00021680860202084F83D00606B016D8847CB
:104400004EE03E48A16B0865A06BFCF788F80028D9
:1044100046D020684069C0F3801030B12068006940
:10442000616A0870606A401C60622068006820F061
:10443000010021680860202084F83D00A06B016D18
:1044400088472DE094F83D0060281AD1202084F898
:104450003D000020206420684069C0F3801030B126
:1044600020680069616A0870606A401C60622068A8
:10447000006820F00100216808602046FCF734FB4A
:104480000EE020684069C0F3801030B120680069F8
:10449000616A0870606A401C60622046FCF77DFC1F
:1044A000256C05F0010058B905F00200022807D07C
:1044B00005F00400042803D005F00800082805D101
:1044C0002068406820F4E0602168486094F83D600E
:1044D000206C00F0040004280ED1282E0CD10848CE
:1044E000E06200202063202084F83D00002084F852
:1044F0003E002046FCF7A6FEBDE8F08161420008C0
:104500000000FFFF014608684069C0F38020B0B199
:104510006FF480600A68506100200863202081F8F1
:104520003D00002081F83E00086C40F00400086463
:1045300000BF002081F83C0000BF01207047002030
:10454000FCE770B50446E56A608D042810D1206848
:10455000406820F480602168486020680069616AD2
:104560000870606A401C6062608D401E60857AE061
:10457000608D03281AD12068406820F4806021688B
:104580004860042D07D0022D05D02068006820F473
:1045900080602168086020680069616A0870606A4C
:1045A000401C6062608D401E60855CE0608D02286A
:1045B0004FD1012D01D0102D06D12068006820F4C4
:1045C00080602168086012E0042D01D0022D06D120
:1045D0002068006840F480602168086007E0102DC2
:1045E00005D02068006840F40070216808602068E9
:1045F0000069616A0870606A401C6062608D401EDC
:10460000608520680069616A0870606A401C6062A9
:10461000608D401E60852068406820F440702168ED
:104620004860202084F83D0094F83E00402807D1DF
:10463000002084F83E0020632046FCF7BFFE12E015
:10464000002084F83E00122020632046FCF7FBFD8A
:1046500009E020680069616A0870606A401C606255
:10466000608D401E608570BD70B5044694F83D00B5
:10467000222870D1658D032D13D920680069616AE5
:104680000870606A401C6062608D401E6085608DAD
:1046900003285FD12068406820F48060216848606A
:1046A00058E0E06A02284FD0012D01D0002D4BD1F7
:1046B000204600F047FF68BB2068006820F4806057
:1046C000216808602068406820F4E0602168486044
:1046D00020680069616A0870606A401C6062608DD1
:1046E000401E6085202084F83D0094F83E0040285C
:1046F00007D1002084F83E0020632046FCF75EFED0
:1047000028E0002084F83E00122020632046FCF7B9
:104710009AFD1FE02068406820F4E060216848604E
:1047200020680069616A0870606A401C6062608D80
:10473000401E6085202084F83D00002084F83E0063
:104740002046FCF72AFB05E02068406820F48060E2
:104750002168486000BF70BD2DE9F84304460D464E
:1047600017469846E66A082E04D0012E02D016F5A8
:10477000803F06D12068006840F48070216808609E
:1047800008E0206B122805D12068006840F4807092
:10479000216808603B4600224FF001112046CDF809
:1047A000008000F0E9FD60B12068006800F48070CE
:1047B000B0F5807F02D14FF4007020640320BDE883
:1047C000F8832069B0F5804F04D105F0FE00216820
:1047D000086112E005F44070F02141EAE010216820
:1047E000086143463A460B49204600F008FE08B1EE
:1047F0000120E4E7E8B22168086143463A460549EA
:10480000891F204600F0FBFD08B10120D7E70020FA
:10481000D5E700000800010070B50446E56A94F889
:104820003D00212847D1608D50B1606A0078216831
:104830000861606A401C6062608D401E60853AE0DD
:10484000082D16D0202D14D015F5803F11D02068EA
:10485000406820F4E0602168486011202063002057
:1048600084F83E00202084F83D002046FCF7ECFC54
:1048700021E02068406820F4E060216848602068FA
:10488000006840F400702168086000202063202048
:1048900084F83D0094F83E00402806D1002084F8BA
:1048A0003E002046FCF78BFD05E0002084F83E002A
:1048B0002046FCF7C9FC70BD2DE9F041044694F890
:1048C0003D5094F83E70E66A208DB0BB212D3CD15E
:1048D000082E16D0202E14D016F5803F11D0206857
:1048E000406820F4E06021684860112020630020C7
:1048F00084F83E00202084F83D002046FCF7A4FC0C
:1049000044E02068406820F4E06021684860206846
:10491000006840F4007021680860002020632020B7
:1049200084F83D0094F83E00402807D1002084F828
:104930003E002046FCF743FD28E006E0002084F816
:104940003E002046FCF780FC20E0212D03D0402FC4
:104950001CD1222D1AD1608D30B92068406820F416
:1049600080602168486011E094F83E00402803D13F
:10497000204600F0A5F909E0606A00782168086126
:10498000606A401C6062608D401E6085BDE8F081F9
:10499000416CC9B202681161416B11B1416BC96BC5
:1049A00021B9816B41B1816BC96B29B1016849683B
:1049B00041F4006102685160704738B590F83E20BC
:1049C000C16A036B90F83D40222C73D1046D64B929
:1049D000402A0AD100BF002400940468646900944E
:1049E0000468A469009400BF1AE1046DC4B90469A5
:1049F000B4F5404F14D100BF0024009404686469EA
:104A000000940468A469009400BF00BF046824688F
:104A100044F4807405682C60046D641C0465FFE038
:104A2000448D8CB900BF002400940468646900942C
:104A30000468A469009400BF00BF0468246844F4BB
:104A4000007405682C60DDE0448D012C72D111F5F5
:104A5000803F30D10468246824F4806405682C60A9
:104A60000468646804F40064B4F5006F10D104684D
:104A7000246824F4806405682C6000BF002400943E
:104A80000468646900940468A469009400BFB9E0F4
:104A900000BF002400940468646900940468A46959
:104AA000009400BF00BF0468246844F400740568E3
:104AB0002C60A7E0A9E0082923D0202921D0122BBF
:104AC00001D101291DD104290AD0022908D01029B9
:104AD00006D00468246824F4806405682C6005E02E
:104AE0000468246844F4806405682C6000BF0024D6
:104AF00000940468646900940468A469009400BF89
:104B000080E00468246824F4806405682C6000BF99
:104B1000002400940468646900940468A469009403
:104B200000BF00BF0468246844F4007405682C606A
:104B300068E0FFE7448D022C3BD1042910D0022904
:104B40000ED010290CD00468246824F48064056811
:104B50002C600468246844F4006405682C6005E057
:104B60000468246844F4806405682C600468646800
:104B700004F40064B4F5006F10D111F5803F07D044
:104B8000012905D0082903D0102901D0202905D1F9
:104B90000468646844F4805405686C6000BF0024B5
:104BA00000940468646900940468A469009400BFD8
:104BB00028E00468246844F4806405682C60046874
:104BC000646804F40064B4F5006F10D111F5803FFF
:104BD00007D0012905D0082903D0102901D02029A8
:104BE00005D10468646844F4805405686C6000BFB3
:104BF000002400940468646900940468A469009423
:104C000000BF00BF002404650AE000BF0024009438
:104C10000468646900940468A469009400BF00BF3C
:104C200038BD90F83E1040290ED1016D29B9416C74
:104C300001F0FE010268116141E0416CC9B241F02E
:104C40000101026811613AE00169B1F5804F20D19C
:104C500090F83D10212905D1416C01F0FE01026858
:104C6000116105E0416CC9B241F0010102681161B6
:104C7000416B11B1416BC96B21B9816BF9B1816B8A
:104C8000C96BE1B10168496841F400610268516093
:104C900015E0016D41B9416C01F44071F02242EA26
:104CA000E111026811610AE0016D012907D1416C2F
:104CB00001F44071F12242EAE1110268116170478A
:104CC00070B5044694F83D50206D98B9E06C012809
:104CD00007D1A06CC0B221680861206D801C2065DE
:104CE0004CE0A06CC0F3072021680861206D401CD7
:104CF000206543E0206D012807D1A06CC0B2216877
:104D00000861206D401C206538E0206D022835D1F7
:104D1000222D09D12068006840F480702168086065
:104D2000206D401C206529E0608D60B1212D0AD1E5
:104D3000606A007821680861606A401C6062608D6A
:104D4000401E60851AE0608DC0B9212D16D1206803
:104D5000406820F4E060216848602068006840F402
:104D600000702168086000202063202084F83D0046
:104D7000002084F83E002046FCF721FB70BD0000B7
:104D80002DE9F84304460F4615469946DDE90886A5
:104D90002068006840F4806021680860206800682E
:104DA00040F4807021680860434600224FF00111F2
:104DB0002046009600F0E0FA60B12068006800F438
:104DC0008070B0F5807F02D14FF400702064032022
:104DD000BDE8F88307F0FE002168086133464246CB
:104DE0003E49204600F00BFB08B10120F0E700BF70
:104DF0000020009020684069009020688069009041
:104E000000BF00BF32464146204600F0C3FB50B110
:104E1000206C042805D12068006840F400702168E7
:104E200008600120D4E7B9F1010F03D1E8B221688D
:104E3000086117E0C5F30720216808613246414642
:104E4000204600F0A7FB50B1206C042805D1206853
:104E5000006840F40070216808600120B8E7E8B2FB
:104E60002168086132464146204600F093FB50B16C
:104E7000206C042805D12068006840F40070216887
:104E800008600120A4E72068006840F48070216871
:104E90000860434600224FF001112046009600F0C2
:104EA0006BFA58B12068006800F48070B0F5807F1C
:104EB00002D14FF400702064032089E7F8B240F07B
:104EC000010021680861334642460449204600F04B
:104ED00096FA08B101207BE7002079E70200010083
:104EE0002DE9F8430446884615469946DDE90867EA
:104EF0002068006840F48070216808603346002212
:104F00004FF001112046009700F036FA60B120689A
:104F1000006800F48070B0F5807F02D14FF400701B
:104F200020640320BDE8F88308F0FE0021680861D2
:104F30003B4632462149204600F061FA08B1012083
:104F4000F0E700BF002000902068406900902068D2
:104F50008069009000BF00BF3A463146204600F00D
:104F600019FB50B1206C042805D12068006840F47A
:104F70000070216808600120D4E7B9F1010F03D166
:104F8000E8B22168086117E0C5F3072021680861CD
:104F90003A463146204600F0FDFA50B1206C042814
:104FA00005D12068006840F4007021680860012085
:104FB000B8E7E8B2216808610020B3E70200010009
:104FC000418D49B101680969426A1170416A491C01
:104FD0004162418D491E4185704770B5044694F881
:104FE0003D50608DD8B120680069616A0870606AC0
:104FF000401C6062608D401E6085608D78B92A2DEE
:105000000DD12068406820F480602168486022202B
:105010002063282084F83D002046FCF79DFC70BDED
:10502000418D49B1416A097802681161416A491CA0
:105030004162418D491E4185704770B5044694F820
:105040003D50608DD8B1606A007821680861606A5F
:10505000401C6062608D401E6085608D78B9292D8E
:105060000DD12068406820F48060216848602120CC
:105070002063282084F83D002046FCF76EFC70BDBC
:10508000F8B504460D46002794F83D0000F02800CE
:1050900028281CD12068406820F48060216848607E
:1050A000C5F3800000B90127C5F3C01010B9A0896D
:1050B00086B201E0208B86B200BF002084F83C005D
:1050C00000BF324639462046FBF70FFD0FE000BF18
:1050D000002000902068406900902068806900905E
:1050E00000BF00BF00BF002084F83C0000BFF8BD37
:1050F00070B5044694F83D50E66A082E01D0202E83
:105100001FD1282D1DD12148E0622068406820F47D
:10511000E060216848606FF4806021684861206821
:10512000006820F48060216808600020206320204F
:1051300084F83D00002084F83E002046FCF782F809
:1051400023E0212D1DD11148E06221202063202081
:1051500084F83D00002084F83E002068406820F478
:10516000E060216848606FF48060216848612068D1
:10517000006820F48060216808602046FCF7EDFBA1
:1051800003E06FF480602168486170BD0000FFFF9C
:1051900038B5044694F83D502068406820F4E0603B
:1051A0002168486000BF002000902068406900909E
:1051B0002068006840F001002168086000BF00BF5F
:1051C0002068006820F480602168086020684068DA
:1051D00000F40060B0F5006F42D1222D01D02A2DDD
:1051E0001FD1A06B006840686085608D18B1206C8D
:1051F00040F0040020642068406820F400602168CA
:105200004860A06BFBF79FF9012829D04148A16BAA
:105210000865A06BFBF783F910B3A06B016D88479D
:105220001EE0606B006840686085608D18B1206C7E
:1052300040F0040020642068406820F40060216889
:105240004860606BFBF77FF9012809D03148616B3A
:105250000865606BFBF763F910B1606B016D8847FF
:10526000608D18B320684069C0F3800048B12068A1
:105270000069616A0870606A401C6062608D401E4F
:10528000608520684069C0F3801048B120680069DB
:10529000616A0870606A401C6062608D401E6085B3
:1052A000608D18B1206C40F004002064206C18B1AF
:1052B0002046FFF751F82BE02A2D07D1002020636C
:1052C000282084F83D002046FCF746FB94F83D007A
:1052D00028280DD11048E06200202063202084F8A7
:1052E0003D00002084F83E002046FBF7ABFF0FE0B6
:1052F000206B222801D0222D0AD1002020632020FB
:1053000084F83D00002084F83E002046FCF724FB92
:1053100038BD0000614200080000FFFF70B5044680
:105320000D46164620E02046FFF7ECF808B10120B4
:1053300070BD681CC0B1FBF7D1FB801BA84200D830
:1053400095B900202063202084F83D00002084F8D7
:105350003E00206C40F02000206400BF002084F854
:105360003C0000BF0120E3E720684069C0F38000F3
:105370000028D8D00020DBE72DE9F04104460D4697
:1053800017461E46DDF818801CE0701CD0B1FBF7F4
:10539000A5FBA0EB0800B04200D89EB90020206316
:1053A000202084F83D00002084F83E00206C40F06E
:1053B0002000206400BF002084F83C0000BF0120D2
:1053C000BDE8F081C5F3074001280AD12068406993
:1053D000A9B20840A9B2884201D101200BE0002007
:1053E00009E020688069A9B20840A9B2884201D1C9
:1053F000012000E00020B842C7D00020E0E72DE9FE
:10540000F04104460D4616461F463DE020684069BF
:10541000C0F38020E8B12068006840F40070216883
:1054200008606FF4806021684861002020632020BC
:1054300084F83D00002084F83E00206C40F0040019
:10544000206400BF002084F83C0000BF0120BDE8BC
:10545000F081701CC0B1FBF741FBC01BB04200D80B
:1054600096B900202063202084F83D00002084F8B5
:105470003E00206C40F02000206400BF002084F833
:105480003C0000BF0120E2E7C5F3074001280AD134
:1054900020684069A9B20840A9B2884201D1012020
:1054A0000BE0002009E020688069A9B20840A9B299
:1054B000884201D1012000E000200028A6D0002071
:1054C000C5E770B504460D46164632E020684069CF
:1054D000C0F30010A0B16FF01000216848610020F7
:1054E0002063202084F83D00002084F83E00206CDA
:1054F000206400BF002084F83C0000BF012070BD84
:10550000FBF7ECFA801BA84200D895B90020206375
:10551000202084F83D00002084F83E00206C40F0FC
:105520002000206400BF002084F83C0000BF012060
:10553000E5E720684069C0F380100028C6D000204D
:10554000DDE7000008B50146002000901048006823
:105550001922B0FBF2F04FF47A72B0FBF2F000EBDC
:105560008000009000BF0098401E0090009828B96D
:10557000086C40F020000864012008BD086800683D
:1055800000F40070B0F5007FEDD00020F5E70000DA
:10559000B400002070B504460D46164620E02046B3
:1055A000FEF7B0FF08B1012070BD681CC0B1FBF769
:1055B00095FA801BA84200D895B9002020632020CE
:1055C00084F83D00002084F83E00206C40F020006C
:1055D000206400BF002084F83C0000BF0120E3E706
:1055E00020684069C0F3C0100028D8D00020DBE755
:1055F00010B52DED068B314890ED000A304880ED56
:10560000000A304989792F4AD27941EA022003F011
:105610000CFC41EC1A0B9FED2C0B53EC102B03F000
:105620007FFA41EC190B9FED2A0B53EC102B03F082
:1056300063FC41EC180B03F08DF920490860084623
:1056400090ED000A1E48D0ED000A30EE600ADFED52
:10565000220AB4EEE00AF1EE10FA09DD1F4890EDDF
:10566000000ADFED1F0A30EE200A80ED000A17E085
:10567000124890ED000A1248D0ED000A30EE600AA0
:10568000DFED180AB4EEE00AF1EE10FA08D2134882
:1056900090ED000ADFED120A30EE600A80ED000A9C
:1056A000064890ED000A0D48D0ED000A30EE600A81
:1056B0000D4880ED000ABDEC068B10BD2C000020CB
:1056C00028000020A8010020000000000000E040A9
:1056D000000000000080664000007A433000002097
:1056E0000000B44300007AC31800002000B587B062
:1056F000142102A8FAF72FFE00BF00200190824873
:10570000006840F00400804908600846006800F026
:105710000400019000BF00BF00BF002001900846B8
:10572000006840F0800008600846006800F08000D3
:10573000019000BF00BF00BF002001900846006834
:1057400040F0100008600846006800F0100001906A
:1057500000BF00BF00BF002001900846006840F075
:10576000020008600846006800F00200019000BFD7
:1057700000BF00BF002001900846006840F008000C
:1057800008600846006800F00800019000BF00BFF4
:1057900000BF002001900846006840F0010008604A
:1057A0000846006800F00100019000BF00BF002221
:1057B0004FF440515548FBF755F901221146534823
:1057C000FBF750F900224FF404415148FBF74AF926
:1057D00001224FF450414F48FBF744F9002248F2B0
:1057E00003014D48FBF73EF901224FF410614B488D
:1057F000FBF738F90122D0214748FBF733F94FF482
:10580000005002901120039000200490059002A9FE
:105810003E48FAF7B1FE01200290112003900020CB
:1058200004900320059002A93848FAF7A5FE4FF42A
:10583000044002900120039000200490059002A9EA
:105840003348FAF799FE4FF450400290012003903C
:10585000002004900320059002A92E48FAF78CFE40
:105860004FF40C50029000200390049002A92948A4
:10587000FAF782FE48F20300029001200390002014
:105880000490059002A92448FAF776FE4FF41060C0
:10589000029001200390002004900220059002A9AC
:1058A0001E48FAF769FE4FF48050029001200390E1
:1058B00000200490059002A91448FAF75DFE90209C
:1058C000029001200390002004900220059002A97C
:1058D0001148FAF751FE4020029001200390002069
:1058E00004900120059002A90B48FAF745FE3020EC
:1058F0000290002003900120049002A90548FAF7C5
:105900003BFE07B000BD00003038024000080240F6
:105910000010024000040240000C0240000002405F
:1059200010B50B480B4908600B4848600021094836
:105930008160C1604FF4804101610021416181615A
:10594000C1610162FBF72AFA08B1FAF78EFD10BDBA
:1059500000540040C8010020A086010000B587B0B7
:1059600000200390049005900690019002904FF063
:105970008040144908604820486000211148816037
:105980004FF6FF71C160002101618161FCF7E4FF06
:1059900008B1FAF76AFD4FF48050039003A9094853
:1059A000FDF7B6F908B1FAF760FD0020019002900A
:1059B00001A90448FCF704FF08B1FAF756FD07B047
:1059C00000BD00001C02002000B595B00020119021
:1059D0001290139014900F9010901C2108A8FAF7C1
:1059E000BAFC20216846FAF7B6FC37483749086008
:1059F000002048600021354881604FF6FF71C1608A
:105A000000210161416180218161FCF7A5FF08B19E
:105A1000FAF72BFD4FF48050119011A92B48FDF798
:105A200077F908B1FAF721FD2848FDF7BDFE08B166
:105A3000FAF71BFD00200F9010900FA92348FCF7E8
:105A4000BFFE08B1FAF711FD702008900020099000
:105A50000A900B900C900D900E90002208A91B4804
:105A6000FDF722FD08B1FAF700FD042208A9174846
:105A7000FDF71AFD08B1FAF7F8FC082208A9134847
:105A8000FDF712FD08B1FAF7F0FC0C2208A90F4847
:105A9000FDF70AFD08B1FAF7E8FC0020009001903C
:105AA0000290039004904FF400500590002007905E
:105AB00069460648FCF7C0FD08B1FAF7D6FC034872
:105AC000FDF7BEFC15B000BD0004014064020020DB
:105AD00010B50B480B4908604FF4E13048600021D5
